{
  "abi": [
    {
      "inputs": [
        {
          "internalType": "string",
          "name": "_data",
          "type": "string"
        }
      ],
      "name": "addToDataArray",
      "outputs": [],
      "stateMutability": "nonpayable",
      "type": "function"
    },
    {
      "inputs": [
        {
          "internalType": "uint256",
          "name": "",
          "type": "uint256"
        }
      ],
      "name": "dataArray",
      "outputs": [
        {
          "internalType": "string",
          "name": "",
          "type": "string"
        }
      ],
      "stateMutability": "view",
      "type": "function"
    },
    {
      "inputs": [],
      "name": "viewDataArray",
      "outputs": [
        {
          "internalType": "string[]",
          "name": "",
          "type": "string[]"
        }
      ],
      "stateMutability": "view",
      "type": "function"
    }
  ],
  "devdoc": {
    "kind": "dev",
    "methods": {},
    "version": 1
  },
  "evm": {
    "assembly": "    /* \"contract.sol\":57:313  contract SimpleStorage {... */\n  mstore(0x40, 0x80)\n  callvalue\n  dup1\n  iszero\n  tag_1\n  jumpi\n  0x00\n  dup1\n  revert\ntag_1:\n  pop\n  dataSize(sub_0)\n  dup1\n  dataOffset(sub_0)\n  0x00\n  codecopy\n  0x00\n  return\nstop\n\nsub_0: assembly {\n        /* \"contract.sol\":57:313  contract SimpleStorage {... */\n      mstore(0x40, 0x80)\n      callvalue\n      dup1\n      iszero\n      tag_1\n      jumpi\n      0x00\n      dup1\n      revert\n    tag_1:\n      pop\n      jumpi(tag_2, lt(calldatasize, 0x04))\n      shr(0xe0, calldataload(0x00))\n      dup1\n      0x24350f55\n      eq\n      tag_3\n      jumpi\n      dup1\n      0x49f2e575\n      eq\n      tag_4\n      jumpi\n      dup1\n      0x68f16655\n      eq\n      tag_5\n      jumpi\n    tag_2:\n      0x00\n      dup1\n      revert\n        /* \"contract.sol\":119:209  function addToDataArray(string memory _data) public {... */\n    tag_3:\n      tag_6\n      tag_7\n      calldatasize\n      0x04\n      tag_8\n      jump\t// in\n    tag_7:\n      tag_9\n      jump\t// in\n    tag_6:\n      stop\n        /* \"contract.sol\":87:112  string[] public dataArray */\n    tag_4:\n      tag_10\n      tag_11\n      calldatasize\n      0x04\n      tag_12\n      jump\t// in\n    tag_11:\n      tag_13\n      jump\t// in\n    tag_10:\n      mload(0x40)\n      tag_14\n      swap2\n      swap1\n      tag_15\n      jump\t// in\n    tag_14:\n      mload(0x40)\n      dup1\n      swap2\n      sub\n      swap1\n      return\n        /* \"contract.sol\":215:311  function viewDataArray() public view returns (string[] memory) {... */\n    tag_5:\n      tag_16\n      tag_17\n      jump\t// in\n    tag_16:\n      mload(0x40)\n      tag_14\n      swap2\n      swap1\n      tag_19\n      jump\t// in\n        /* \"contract.sol\":119:209  function addToDataArray(string memory _data) public {... */\n    tag_9:\n        /* \"contract.sol\":181:190  dataArray */\n      0x00\n        /* \"contract.sol\":181:202  dataArray.push(_data) */\n      dup1\n      sload\n      0x01\n      dup2\n      add\n      dup3\n      sstore\n      swap1\n      dup1\n      mstore\n      0x290decd9548b62a8d60345a988386fc84ba6bc95484008f6362f93160ef3e563\n      add\n      tag_22\n        /* \"contract.sol\":196:201  _data */\n      dup3\n        /* \"contract.sol\":181:202  dataArray.push(_data) */\n      dup3\n      tag_23\n      jump\t// in\n    tag_22:\n      pop\n        /* \"contract.sol\":119:209  function addToDataArray(string memory _data) public {... */\n      pop\n      jump\t// out\n        /* \"contract.sol\":87:112  string[] public dataArray */\n    tag_13:\n      0x00\n      dup2\n      dup2\n      sload\n      dup2\n      lt\n      tag_24\n      jumpi\n      0x00\n      dup1\n      revert\n    tag_24:\n      swap1\n      0x00\n      mstore\n      keccak256(0x00, 0x20)\n      add\n      0x00\n      swap2\n      pop\n      swap1\n      pop\n      dup1\n      sload\n      tag_26\n      swap1\n      tag_27\n      jump\t// in\n    tag_26:\n      dup1\n      0x1f\n      add\n      0x20\n      dup1\n      swap2\n      div\n      mul\n      0x20\n      add\n      mload(0x40)\n      swap1\n      dup2\n      add\n      0x40\n      mstore\n      dup1\n      swap3\n      swap2\n      swap1\n      dup2\n      dup2\n      mstore\n      0x20\n      add\n      dup3\n      dup1\n      sload\n      tag_28\n      swap1\n      tag_27\n      jump\t// in\n    tag_28:\n      dup1\n      iszero\n      tag_29\n      jumpi\n      dup1\n      0x1f\n      lt\n      tag_30\n      jumpi\n      0x0100\n      dup1\n      dup4\n      sload\n      div\n      mul\n      dup4\n      mstore\n      swap2\n      0x20\n      add\n      swap2\n      jump(tag_29)\n    tag_30:\n      dup3\n      add\n      swap2\n      swap1\n      0x00\n      mstore\n      keccak256(0x00, 0x20)\n      swap1\n    tag_31:\n      dup2\n      sload\n      dup2\n      mstore\n      swap1\n      0x01\n      add\n      swap1\n      0x20\n      add\n      dup1\n      dup4\n      gt\n      tag_31\n      jumpi\n      dup3\n      swap1\n      sub\n      0x1f\n      and\n      dup3\n      add\n      swap2\n    tag_29:\n      pop\n      pop\n      pop\n      pop\n      pop\n      dup2\n      jump\t// out\n        /* \"contract.sol\":215:311  function viewDataArray() public view returns (string[] memory) {... */\n    tag_17:\n        /* \"contract.sol\":261:276  string[] memory */\n      0x60\n        /* \"contract.sol\":295:304  dataArray */\n      0x00\n        /* \"contract.sol\":288:304  return dataArray */\n      dup1\n      sload\n      dup1\n      0x20\n      mul\n      0x20\n      add\n      mload(0x40)\n      swap1\n      dup2\n      add\n      0x40\n      mstore\n      dup1\n      swap3\n      swap2\n      swap1\n      dup2\n      dup2\n      mstore\n      0x20\n      add\n      0x00\n      swap1\n    tag_33:\n      dup3\n      dup3\n      lt\n      iszero\n      tag_34\n      jumpi\n      dup4\n      dup3\n      swap1\n      0x00\n      mstore\n      keccak256(0x00, 0x20)\n      add\n      dup1\n      sload\n      tag_36\n      swap1\n      tag_27\n      jump\t// in\n    tag_36:\n      dup1\n      0x1f\n      add\n      0x20\n      dup1\n      swap2\n      div\n      mul\n      0x20\n      add\n      mload(0x40)\n      swap1\n      dup2\n      add\n      0x40\n      mstore\n      dup1\n      swap3\n      swap2\n      swap1\n      dup2\n      dup2\n      mstore\n      0x20\n      add\n      dup3\n      dup1\n      sload\n      tag_37\n      swap1\n      tag_27\n      jump\t// in\n    tag_37:\n      dup1\n      iszero\n      tag_38\n      jumpi\n      dup1\n      0x1f\n      lt\n      tag_39\n      jumpi\n      0x0100\n      dup1\n      dup4\n      sload\n      div\n      mul\n      dup4\n      mstore\n      swap2\n      0x20\n      add\n      swap2\n      jump(tag_38)\n    tag_39:\n      dup3\n      add\n      swap2\n      swap1\n      0x00\n      mstore\n      keccak256(0x00, 0x20)\n      swap1\n    tag_40:\n      dup2\n      sload\n      dup2\n      mstore\n      swap1\n      0x01\n      add\n      swap1\n      0x20\n      add\n      dup1\n      dup4\n      gt\n      tag_40\n      jumpi\n      dup3\n      swap1\n      sub\n      0x1f\n      and\n      dup3\n      add\n      swap2\n    tag_38:\n      pop\n      pop\n      pop\n      pop\n      pop\n      dup2\n      mstore\n      0x20\n      add\n      swap1\n      0x01\n      add\n      swap1\n      jump(tag_33)\n    tag_34:\n      pop\n      pop\n      pop\n      pop\n      swap1\n      pop\n        /* \"contract.sol\":215:311  function viewDataArray() public view returns (string[] memory) {... */\n      swap1\n      jump\t// out\n        /* \"#utility.yul\":14:141   */\n    tag_41:\n        /* \"#utility.yul\":75:85   */\n      0x4e487b71\n        /* \"#utility.yul\":70:73   */\n      0xe0\n        /* \"#utility.yul\":66:86   */\n      shl\n        /* \"#utility.yul\":63:64   */\n      0x00\n        /* \"#utility.yul\":56:87   */\n      mstore\n        /* \"#utility.yul\":106:110   */\n      0x41\n        /* \"#utility.yul\":103:104   */\n      0x04\n        /* \"#utility.yul\":96:111   */\n      mstore\n        /* \"#utility.yul\":130:134   */\n      0x24\n        /* \"#utility.yul\":127:128   */\n      0x00\n        /* \"#utility.yul\":120:135   */\n      revert\n        /* \"#utility.yul\":146:1068   */\n    tag_8:\n        /* \"#utility.yul\":215:221   */\n      0x00\n        /* \"#utility.yul\":268:270   */\n      0x20\n        /* \"#utility.yul\":256:265   */\n      dup3\n        /* \"#utility.yul\":247:254   */\n      dup5\n        /* \"#utility.yul\":243:266   */\n      sub\n        /* \"#utility.yul\":239:271   */\n      slt\n        /* \"#utility.yul\":236:288   */\n      iszero\n      tag_49\n      jumpi\n        /* \"#utility.yul\":284:285   */\n      0x00\n        /* \"#utility.yul\":281:282   */\n      dup1\n        /* \"#utility.yul\":274:286   */\n      revert\n        /* \"#utility.yul\":236:288   */\n    tag_49:\n        /* \"#utility.yul\":324:333   */\n      dup2\n        /* \"#utility.yul\":311:334   */\n      calldataload\n        /* \"#utility.yul\":353:371   */\n      0xffffffffffffffff\n        /* \"#utility.yul\":394:396   */\n      dup1\n        /* \"#utility.yul\":386:392   */\n      dup3\n        /* \"#utility.yul\":383:397   */\n      gt\n        /* \"#utility.yul\":380:414   */\n      iszero\n      tag_50\n      jumpi\n        /* \"#utility.yul\":410:411   */\n      0x00\n        /* \"#utility.yul\":407:408   */\n      dup1\n        /* \"#utility.yul\":400:412   */\n      revert\n        /* \"#utility.yul\":380:414   */\n    tag_50:\n        /* \"#utility.yul\":448:454   */\n      dup2\n        /* \"#utility.yul\":437:446   */\n      dup5\n        /* \"#utility.yul\":433:455   */\n      add\n        /* \"#utility.yul\":423:455   */\n      swap2\n      pop\n        /* \"#utility.yul\":493:500   */\n      dup5\n        /* \"#utility.yul\":486:490   */\n      0x1f\n        /* \"#utility.yul\":482:484   */\n      dup4\n        /* \"#utility.yul\":478:491   */\n      add\n        /* \"#utility.yul\":474:501   */\n      slt\n        /* \"#utility.yul\":464:519   */\n      tag_51\n      jumpi\n        /* \"#utility.yul\":515:516   */\n      0x00\n        /* \"#utility.yul\":512:513   */\n      dup1\n        /* \"#utility.yul\":505:517   */\n      revert\n        /* \"#utility.yul\":464:519   */\n    tag_51:\n        /* \"#utility.yul\":551:553   */\n      dup2\n        /* \"#utility.yul\":538:554   */\n      calldataload\n        /* \"#utility.yul\":573:575   */\n      dup2\n        /* \"#utility.yul\":569:571   */\n      dup2\n        /* \"#utility.yul\":566:576   */\n      gt\n        /* \"#utility.yul\":563:599   */\n      iszero\n      tag_53\n      jumpi\n        /* \"#utility.yul\":579:597   */\n      tag_53\n      tag_41\n      jump\t// in\n    tag_53:\n        /* \"#utility.yul\":654:656   */\n      0x40\n        /* \"#utility.yul\":648:657   */\n      mload\n        /* \"#utility.yul\":622:624   */\n      0x1f\n        /* \"#utility.yul\":708:721   */\n      dup3\n      add\n      not(0x1f)\n        /* \"#utility.yul\":704:726   */\n      swap1\n      dup2\n      and\n        /* \"#utility.yul\":728:730   */\n      0x3f\n        /* \"#utility.yul\":700:731   */\n      add\n        /* \"#utility.yul\":696:736   */\n      and\n        /* \"#utility.yul\":684:737   */\n      dup2\n      add\n      swap1\n        /* \"#utility.yul\":752:770   */\n      dup4\n      dup3\n      gt\n        /* \"#utility.yul\":772:794   */\n      dup2\n      dup4\n      lt\n        /* \"#utility.yul\":749:795   */\n      or\n        /* \"#utility.yul\":746:818   */\n      iszero\n      tag_55\n      jumpi\n        /* \"#utility.yul\":798:816   */\n      tag_55\n      tag_41\n      jump\t// in\n    tag_55:\n        /* \"#utility.yul\":838:848   */\n      dup2\n        /* \"#utility.yul\":834:836   */\n      0x40\n        /* \"#utility.yul\":827:849   */\n      mstore\n        /* \"#utility.yul\":873:875   */\n      dup3\n        /* \"#utility.yul\":865:871   */\n      dup2\n        /* \"#utility.yul\":858:876   */\n      mstore\n        /* \"#utility.yul\":913:920   */\n      dup8\n        /* \"#utility.yul\":908:910   */\n      0x20\n        /* \"#utility.yul\":903:905   */\n      dup5\n        /* \"#utility.yul\":899:901   */\n      dup8\n        /* \"#utility.yul\":895:906   */\n      add\n        /* \"#utility.yul\":891:911   */\n      add\n        /* \"#utility.yul\":888:921   */\n      gt\n        /* \"#utility.yul\":885:938   */\n      iszero\n      tag_56\n      jumpi\n        /* \"#utility.yul\":934:935   */\n      0x00\n        /* \"#utility.yul\":931:932   */\n      dup1\n        /* \"#utility.yul\":924:936   */\n      revert\n        /* \"#utility.yul\":885:938   */\n    tag_56:\n        /* \"#utility.yul\":990:992   */\n      dup3\n        /* \"#utility.yul\":985:987   */\n      0x20\n        /* \"#utility.yul\":981:983   */\n      dup7\n        /* \"#utility.yul\":977:988   */\n      add\n        /* \"#utility.yul\":972:974   */\n      0x20\n        /* \"#utility.yul\":964:970   */\n      dup4\n        /* \"#utility.yul\":960:975   */\n      add\n        /* \"#utility.yul\":947:993   */\n      calldatacopy\n        /* \"#utility.yul\":1035:1036   */\n      0x00\n        /* \"#utility.yul\":1013:1028   */\n      swap3\n      dup2\n      add\n        /* \"#utility.yul\":1030:1032   */\n      0x20\n        /* \"#utility.yul\":1009:1033   */\n      add\n        /* \"#utility.yul\":1002:1037   */\n      swap3\n      swap1\n      swap3\n      mstore\n      pop\n        /* \"#utility.yul\":1017:1023   */\n      swap6\n        /* \"#utility.yul\":146:1068   */\n      swap5\n      pop\n      pop\n      pop\n      pop\n      pop\n      jump\t// out\n        /* \"#utility.yul\":1073:1253   */\n    tag_12:\n        /* \"#utility.yul\":1132:1138   */\n      0x00\n        /* \"#utility.yul\":1185:1187   */\n      0x20\n        /* \"#utility.yul\":1173:1182   */\n      dup3\n        /* \"#utility.yul\":1164:1171   */\n      dup5\n        /* \"#utility.yul\":1160:1183   */\n      sub\n        /* \"#utility.yul\":1156:1188   */\n      slt\n        /* \"#utility.yul\":1153:1205   */\n      iszero\n      tag_58\n      jumpi\n        /* \"#utility.yul\":1201:1202   */\n      0x00\n        /* \"#utility.yul\":1198:1199   */\n      dup1\n        /* \"#utility.yul\":1191:1203   */\n      revert\n        /* \"#utility.yul\":1153:1205   */\n    tag_58:\n      pop\n        /* \"#utility.yul\":1224:1247   */\n      calldataload\n      swap2\n        /* \"#utility.yul\":1073:1253   */\n      swap1\n      pop\n      jump\t// out\n        /* \"#utility.yul\":1258:1681   */\n    tag_42:\n        /* \"#utility.yul\":1300:1303   */\n      0x00\n        /* \"#utility.yul\":1338:1343   */\n      dup2\n        /* \"#utility.yul\":1332:1344   */\n      mload\n        /* \"#utility.yul\":1365:1371   */\n      dup1\n        /* \"#utility.yul\":1360:1363   */\n      dup5\n        /* \"#utility.yul\":1353:1372   */\n      mstore\n        /* \"#utility.yul\":1390:1391   */\n      0x00\n        /* \"#utility.yul\":1400:1562   */\n    tag_60:\n        /* \"#utility.yul\":1414:1420   */\n      dup2\n        /* \"#utility.yul\":1411:1412   */\n      dup2\n        /* \"#utility.yul\":1408:1421   */\n      lt\n        /* \"#utility.yul\":1400:1562   */\n      iszero\n      tag_62\n      jumpi\n        /* \"#utility.yul\":1476:1480   */\n      0x20\n        /* \"#utility.yul\":1532:1545   */\n      dup2\n      dup6\n      add\n        /* \"#utility.yul\":1528:1550   */\n      dup2\n      add\n        /* \"#utility.yul\":1522:1551   */\n      mload\n        /* \"#utility.yul\":1504:1515   */\n      dup7\n      dup4\n      add\n        /* \"#utility.yul\":1500:1520   */\n      dup3\n      add\n        /* \"#utility.yul\":1493:1552   */\n      mstore\n        /* \"#utility.yul\":1429:1441   */\n      add\n        /* \"#utility.yul\":1400:1562   */\n      jump(tag_60)\n    tag_62:\n        /* \"#utility.yul\":1404:1407   */\n      pop\n        /* \"#utility.yul\":1607:1608   */\n      0x00\n        /* \"#utility.yul\":1600:1604   */\n      0x20\n        /* \"#utility.yul\":1591:1597   */\n      dup3\n        /* \"#utility.yul\":1586:1589   */\n      dup7\n        /* \"#utility.yul\":1582:1598   */\n      add\n        /* \"#utility.yul\":1578:1605   */\n      add\n        /* \"#utility.yul\":1571:1609   */\n      mstore\n        /* \"#utility.yul\":1670:1674   */\n      0x20\n        /* \"#utility.yul\":1663:1665   */\n      0x1f\n        /* \"#utility.yul\":1659:1666   */\n      not\n        /* \"#utility.yul\":1654:1656   */\n      0x1f\n        /* \"#utility.yul\":1646:1652   */\n      dup4\n        /* \"#utility.yul\":1642:1657   */\n      add\n        /* \"#utility.yul\":1638:1667   */\n      and\n        /* \"#utility.yul\":1633:1636   */\n      dup6\n        /* \"#utility.yul\":1629:1668   */\n      add\n        /* \"#utility.yul\":1625:1675   */\n      add\n        /* \"#utility.yul\":1618:1675   */\n      swap2\n      pop\n      pop\n        /* \"#utility.yul\":1258:1681   */\n      swap3\n      swap2\n      pop\n      pop\n      jump\t// out\n        /* \"#utility.yul\":1686:1906   */\n    tag_15:\n        /* \"#utility.yul\":1835:1837   */\n      0x20\n        /* \"#utility.yul\":1824:1833   */\n      dup2\n        /* \"#utility.yul\":1817:1838   */\n      mstore\n        /* \"#utility.yul\":1798:1802   */\n      0x00\n        /* \"#utility.yul\":1855:1900   */\n      tag_64\n        /* \"#utility.yul\":1896:1898   */\n      0x20\n        /* \"#utility.yul\":1885:1894   */\n      dup4\n        /* \"#utility.yul\":1881:1899   */\n      add\n        /* \"#utility.yul\":1873:1879   */\n      dup5\n        /* \"#utility.yul\":1855:1900   */\n      tag_42\n      jump\t// in\n    tag_64:\n        /* \"#utility.yul\":1847:1900   */\n      swap4\n        /* \"#utility.yul\":1686:1906   */\n      swap3\n      pop\n      pop\n      pop\n      jump\t// out\n        /* \"#utility.yul\":1911:2714   */\n    tag_19:\n        /* \"#utility.yul\":2073:2077   */\n      0x00\n        /* \"#utility.yul\":2102:2104   */\n      0x20\n        /* \"#utility.yul\":2142:2144   */\n      dup1\n        /* \"#utility.yul\":2131:2140   */\n      dup4\n        /* \"#utility.yul\":2127:2145   */\n      add\n        /* \"#utility.yul\":2172:2174   */\n      dup2\n        /* \"#utility.yul\":2161:2170   */\n      dup5\n        /* \"#utility.yul\":2154:2175   */\n      mstore\n        /* \"#utility.yul\":2195:2201   */\n      dup1\n        /* \"#utility.yul\":2230:2236   */\n      dup6\n        /* \"#utility.yul\":2224:2237   */\n      mload\n        /* \"#utility.yul\":2261:2267   */\n      dup1\n        /* \"#utility.yul\":2253:2259   */\n      dup4\n        /* \"#utility.yul\":2246:2268   */\n      mstore\n        /* \"#utility.yul\":2299:2301   */\n      0x40\n        /* \"#utility.yul\":2288:2297   */\n      dup7\n        /* \"#utility.yul\":2284:2302   */\n      add\n        /* \"#utility.yul\":2277:2302   */\n      swap2\n      pop\n        /* \"#utility.yul\":2361:2363   */\n      0x40\n        /* \"#utility.yul\":2351:2357   */\n      dup2\n        /* \"#utility.yul\":2348:2349   */\n      0x05\n        /* \"#utility.yul\":2344:2358   */\n      shl\n        /* \"#utility.yul\":2333:2342   */\n      dup8\n        /* \"#utility.yul\":2329:2359   */\n      add\n        /* \"#utility.yul\":2325:2364   */\n      add\n        /* \"#utility.yul\":2311:2364   */\n      swap3\n      pop\n        /* \"#utility.yul\":2399:2401   */\n      dup4\n        /* \"#utility.yul\":2391:2397   */\n      dup8\n        /* \"#utility.yul\":2387:2402   */\n      add\n        /* \"#utility.yul\":2420:2421   */\n      0x00\n        /* \"#utility.yul\":2430:2685   */\n    tag_66:\n        /* \"#utility.yul\":2444:2450   */\n      dup3\n        /* \"#utility.yul\":2441:2442   */\n      dup2\n        /* \"#utility.yul\":2438:2451   */\n      lt\n        /* \"#utility.yul\":2430:2685   */\n      iszero\n      tag_68\n      jumpi\n        /* \"#utility.yul\":2537:2539   */\n      0x3f\n        /* \"#utility.yul\":2533:2540   */\n      not\n        /* \"#utility.yul\":2521:2530   */\n      dup9\n        /* \"#utility.yul\":2513:2519   */\n      dup7\n        /* \"#utility.yul\":2509:2531   */\n      sub\n        /* \"#utility.yul\":2505:2541   */\n      add\n        /* \"#utility.yul\":2500:2503   */\n      dup5\n        /* \"#utility.yul\":2493:2542   */\n      mstore\n        /* \"#utility.yul\":2565:2605   */\n      tag_69\n        /* \"#utility.yul\":2598:2604   */\n      dup6\n        /* \"#utility.yul\":2589:2595   */\n      dup4\n        /* \"#utility.yul\":2583:2596   */\n      mload\n        /* \"#utility.yul\":2565:2605   */\n      tag_42\n      jump\t// in\n    tag_69:\n        /* \"#utility.yul\":2555:2605   */\n      swap5\n      pop\n        /* \"#utility.yul\":2663:2675   */\n      swap3\n      dup6\n      add\n      swap3\n        /* \"#utility.yul\":2628:2643   */\n      swap1\n      dup6\n      add\n      swap1\n        /* \"#utility.yul\":2466:2467   */\n      0x01\n        /* \"#utility.yul\":2459:2468   */\n      add\n        /* \"#utility.yul\":2430:2685   */\n      jump(tag_66)\n    tag_68:\n      pop\n        /* \"#utility.yul\":2702:2708   */\n      swap3\n      swap8\n        /* \"#utility.yul\":1911:2714   */\n      swap7\n      pop\n      pop\n      pop\n      pop\n      pop\n      pop\n      pop\n      jump\t// out\n        /* \"#utility.yul\":2719:3099   */\n    tag_27:\n        /* \"#utility.yul\":2798:2799   */\n      0x01\n        /* \"#utility.yul\":2794:2806   */\n      dup2\n      dup2\n      shr\n      swap1\n        /* \"#utility.yul\":2841:2853   */\n      dup3\n      and\n      dup1\n        /* \"#utility.yul\":2862:2923   */\n      tag_71\n      jumpi\n        /* \"#utility.yul\":2916:2920   */\n      0x7f\n        /* \"#utility.yul\":2908:2914   */\n      dup3\n        /* \"#utility.yul\":2904:2921   */\n      and\n        /* \"#utility.yul\":2894:2921   */\n      swap2\n      pop\n        /* \"#utility.yul\":2862:2923   */\n    tag_71:\n        /* \"#utility.yul\":2969:2971   */\n      0x20\n        /* \"#utility.yul\":2961:2967   */\n      dup3\n        /* \"#utility.yul\":2958:2972   */\n      lt\n        /* \"#utility.yul\":2938:2956   */\n      dup2\n        /* \"#utility.yul\":2935:2973   */\n      sub\n        /* \"#utility.yul\":2932:3093   */\n      tag_72\n      jumpi\n        /* \"#utility.yul\":3015:3025   */\n      0x4e487b71\n        /* \"#utility.yul\":3010:3013   */\n      0xe0\n        /* \"#utility.yul\":3006:3026   */\n      shl\n        /* \"#utility.yul\":3003:3004   */\n      0x00\n        /* \"#utility.yul\":2996:3027   */\n      mstore\n        /* \"#utility.yul\":3050:3054   */\n      0x22\n        /* \"#utility.yul\":3047:3048   */\n      0x04\n        /* \"#utility.yul\":3040:3055   */\n      mstore\n        /* \"#utility.yul\":3078:3082   */\n      0x24\n        /* \"#utility.yul\":3075:3076   */\n      0x00\n        /* \"#utility.yul\":3068:3083   */\n      revert\n        /* \"#utility.yul\":2932:3093   */\n    tag_72:\n      pop\n        /* \"#utility.yul\":2719:3099   */\n      swap2\n      swap1\n      pop\n      jump\t// out\n        /* \"#utility.yul\":3230:3775   */\n    tag_44:\n        /* \"#utility.yul\":3332:3334   */\n      0x1f\n        /* \"#utility.yul\":3327:3330   */\n      dup3\n        /* \"#utility.yul\":3324:3335   */\n      gt\n        /* \"#utility.yul\":3321:3769   */\n      iszero\n      tag_75\n      jumpi\n        /* \"#utility.yul\":3368:3369   */\n      0x00\n        /* \"#utility.yul\":3393:3398   */\n      dup2\n        /* \"#utility.yul\":3389:3391   */\n      dup2\n        /* \"#utility.yul\":3382:3399   */\n      mstore\n        /* \"#utility.yul\":3438:3442   */\n      0x20\n        /* \"#utility.yul\":3434:3436   */\n      dup2\n        /* \"#utility.yul\":3424:3443   */\n      keccak256\n        /* \"#utility.yul\":3508:3510   */\n      0x1f\n        /* \"#utility.yul\":3496:3506   */\n      dup6\n        /* \"#utility.yul\":3492:3511   */\n      add\n        /* \"#utility.yul\":3489:3490   */\n      0x05\n        /* \"#utility.yul\":3485:3512   */\n      shr\n        /* \"#utility.yul\":3479:3483   */\n      dup2\n        /* \"#utility.yul\":3475:3513   */\n      add\n        /* \"#utility.yul\":3544:3548   */\n      0x20\n        /* \"#utility.yul\":3532:3542   */\n      dup7\n        /* \"#utility.yul\":3529:3549   */\n      lt\n        /* \"#utility.yul\":3526:3573   */\n      iszero\n      tag_76\n      jumpi\n      pop\n        /* \"#utility.yul\":3567:3571   */\n      dup1\n        /* \"#utility.yul\":3526:3573   */\n    tag_76:\n        /* \"#utility.yul\":3622:3624   */\n      0x1f\n        /* \"#utility.yul\":3617:3620   */\n      dup6\n        /* \"#utility.yul\":3613:3625   */\n      add\n        /* \"#utility.yul\":3610:3611   */\n      0x05\n        /* \"#utility.yul\":3606:3626   */\n      shr\n        /* \"#utility.yul\":3600:3604   */\n      dup3\n        /* \"#utility.yul\":3596:3627   */\n      add\n        /* \"#utility.yul\":3586:3627   */\n      swap2\n      pop\n        /* \"#utility.yul\":3677:3759   */\n    tag_77:\n        /* \"#utility.yul\":3695:3697   */\n      dup2\n        /* \"#utility.yul\":3688:3693   */\n      dup2\n        /* \"#utility.yul\":3685:3698   */\n      lt\n        /* \"#utility.yul\":3677:3759   */\n      iszero\n      tag_79\n      jumpi\n        /* \"#utility.yul\":3740:3757   */\n      dup3\n      dup2\n      sstore\n        /* \"#utility.yul\":3721:3722   */\n      0x01\n        /* \"#utility.yul\":3710:3723   */\n      add\n        /* \"#utility.yul\":3677:3759   */\n      jump(tag_77)\n    tag_79:\n        /* \"#utility.yul\":3681:3684   */\n      pop\n      pop\n      pop\n        /* \"#utility.yul\":3321:3769   */\n    tag_75:\n        /* \"#utility.yul\":3230:3775   */\n      pop\n      pop\n      pop\n      jump\t// out\n        /* \"#utility.yul\":3951:5303   */\n    tag_23:\n        /* \"#utility.yul\":4077:4080   */\n      dup2\n        /* \"#utility.yul\":4071:4081   */\n      mload\n        /* \"#utility.yul\":4104:4122   */\n      0xffffffffffffffff\n        /* \"#utility.yul\":4096:4102   */\n      dup2\n        /* \"#utility.yul\":4093:4123   */\n      gt\n        /* \"#utility.yul\":4090:4146   */\n      iszero\n      tag_83\n      jumpi\n        /* \"#utility.yul\":4126:4144   */\n      tag_83\n      tag_41\n      jump\t// in\n    tag_83:\n        /* \"#utility.yul\":4155:4252   */\n      tag_84\n        /* \"#utility.yul\":4245:4251   */\n      dup2\n        /* \"#utility.yul\":4205:4243   */\n      tag_85\n        /* \"#utility.yul\":4237:4241   */\n      dup5\n        /* \"#utility.yul\":4231:4242   */\n      sload\n        /* \"#utility.yul\":4205:4243   */\n      tag_27\n      jump\t// in\n    tag_85:\n        /* \"#utility.yul\":4199:4203   */\n      dup5\n        /* \"#utility.yul\":4155:4252   */\n      tag_44\n      jump\t// in\n    tag_84:\n        /* \"#utility.yul\":4307:4311   */\n      0x20\n      dup1\n        /* \"#utility.yul\":4371:4373   */\n      0x1f\n        /* \"#utility.yul\":4360:4374   */\n      dup4\n      gt\n        /* \"#utility.yul\":4388:4389   */\n      0x01\n        /* \"#utility.yul\":4383:5046   */\n      dup2\n      eq\n      tag_87\n      jumpi\n        /* \"#utility.yul\":5090:5091   */\n      0x00\n        /* \"#utility.yul\":5107:5113   */\n      dup5\n        /* \"#utility.yul\":5104:5193   */\n      iszero\n      tag_88\n      jumpi\n      pop\n        /* \"#utility.yul\":5159:5178   */\n      dup6\n      dup4\n      add\n        /* \"#utility.yul\":5153:5179   */\n      mload\n        /* \"#utility.yul\":5104:5193   */\n    tag_88:\n      not(0x00)\n        /* \"#utility.yul\":3908:3909   */\n      0x03\n        /* \"#utility.yul\":3904:3915   */\n      dup7\n      swap1\n      shl\n        /* \"#utility.yul\":3900:3924   */\n      shr\n        /* \"#utility.yul\":3896:3925   */\n      not\n        /* \"#utility.yul\":3886:3926   */\n      and\n        /* \"#utility.yul\":3932:3933   */\n      0x01\n        /* \"#utility.yul\":3928:3939   */\n      dup6\n      swap1\n      shl\n        /* \"#utility.yul\":3883:3940   */\n      or\n        /* \"#utility.yul\":5206:5287   */\n      dup6\n      sstore\n        /* \"#utility.yul\":4353:5297   */\n      jump(tag_79)\n        /* \"#utility.yul\":4383:5046   */\n    tag_87:\n        /* \"#utility.yul\":3177:3178   */\n      0x00\n        /* \"#utility.yul\":3170:3184   */\n      dup6\n      dup2\n      mstore\n        /* \"#utility.yul\":3214:3218   */\n      0x20\n        /* \"#utility.yul\":3201:3219   */\n      dup2\n      keccak256\n      not(0x1f)\n        /* \"#utility.yul\":4419:4439   */\n      dup7\n      and\n      swap2\n        /* \"#utility.yul\":4537:4773   */\n    tag_91:\n        /* \"#utility.yul\":4551:4558   */\n      dup3\n        /* \"#utility.yul\":4548:4549   */\n      dup2\n        /* \"#utility.yul\":4545:4559   */\n      lt\n        /* \"#utility.yul\":4537:4773   */\n      iszero\n      tag_93\n      jumpi\n        /* \"#utility.yul\":4640:4659   */\n      dup9\n      dup7\n      add\n        /* \"#utility.yul\":4634:4660   */\n      mload\n        /* \"#utility.yul\":4619:4661   */\n      dup3\n      sstore\n        /* \"#utility.yul\":4732:4759   */\n      swap5\n      dup5\n      add\n      swap5\n        /* \"#utility.yul\":4700:4701   */\n      0x01\n        /* \"#utility.yul\":4688:4702   */\n      swap1\n      swap2\n      add\n      swap1\n        /* \"#utility.yul\":4567:4586   */\n      dup5\n      add\n        /* \"#utility.yul\":4537:4773   */\n      jump(tag_91)\n    tag_93:\n        /* \"#utility.yul\":4541:4544   */\n      pop\n        /* \"#utility.yul\":4801:4807   */\n      dup6\n        /* \"#utility.yul\":4792:4799   */\n      dup3\n        /* \"#utility.yul\":4789:4808   */\n      lt\n        /* \"#utility.yul\":4786:4987   */\n      iszero\n      tag_94\n      jumpi\n        /* \"#utility.yul\":4862:4881   */\n      dup8\n      dup6\n      add\n        /* \"#utility.yul\":4856:4882   */\n      mload\n      not(0x00)\n        /* \"#utility.yul\":4945:4946   */\n      0x03\n        /* \"#utility.yul\":4941:4955   */\n      dup9\n      swap1\n      shl\n        /* \"#utility.yul\":4957:4960   */\n      0xf8\n        /* \"#utility.yul\":4937:4961   */\n      and\n        /* \"#utility.yul\":4933:4970   */\n      shr\n        /* \"#utility.yul\":4929:4971   */\n      not\n        /* \"#utility.yul\":4914:4972   */\n      and\n        /* \"#utility.yul\":4899:4973   */\n      dup2\n      sstore\n        /* \"#utility.yul\":4786:4987   */\n    tag_94:\n      pop\n      pop\n      pop\n      pop\n      pop\n        /* \"#utility.yul\":5033:5034   */\n      0x01\n        /* \"#utility.yul\":5017:5031   */\n      swap1\n      dup2\n      shl\n        /* \"#utility.yul\":5013:5035   */\n      add\n        /* \"#utility.yul\":5000:5036   */\n      swap1\n      sstore\n      pop\n        /* \"#utility.yul\":3951:5303   */\n      jump\t// out\n\n    auxdata: 0xa264697066735822122005749faa6991c3e5e767e1f4ab5f787172aba201483dd1d833b549827e439bf964736f6c63430008110033\n}\n",
    "bytecode": {
      "linkReferences": {},
      "object": "608060405234801561001057600080fd5b5061057c806100206000396000f3fe608060405234801561001057600080fd5b50600436106100415760003560e01c806324350f551461004657806349f2e5751461005b57806368f1665514610084575b600080fd5b610059610054366004610271565b610099565b005b61006e610069366004610322565b6100d6565b60405161007b9190610381565b60405180910390f35b61008c610182565b60405161007b919061039b565b600080546001810182559080527f290decd9548b62a8d60345a988386fc84ba6bc95484008f6362f93160ef3e563016100d28282610486565b5050565b600081815481106100e657600080fd5b906000526020600020016000915090508054610101906103fd565b80601f016020809104026020016040519081016040528092919081815260200182805461012d906103fd565b801561017a5780601f1061014f5761010080835404028352916020019161017a565b820191906000526020600020905b81548152906001019060200180831161015d57829003601f168201915b505050505081565b60606000805480602002602001604051908101604052809291908181526020016000905b828210156102525783829060005260206000200180546101c5906103fd565b80601f01602080910402602001604051908101604052809291908181526020018280546101f1906103fd565b801561023e5780601f106102135761010080835404028352916020019161023e565b820191906000526020600020905b81548152906001019060200180831161022157829003601f168201915b5050505050815260200190600101906101a6565b50505050905090565b634e487b7160e01b600052604160045260246000fd5b60006020828403121561028357600080fd5b813567ffffffffffffffff8082111561029b57600080fd5b818401915084601f8301126102af57600080fd5b8135818111156102c1576102c161025b565b604051601f8201601f19908116603f011681019083821181831017156102e9576102e961025b565b8160405282815287602084870101111561030257600080fd5b826020860160208301376000928101602001929092525095945050505050565b60006020828403121561033457600080fd5b5035919050565b6000815180845260005b8181101561036157602081850181015186830182015201610345565b506000602082860101526020601f19601f83011685010191505092915050565b602081526000610394602083018461033b565b9392505050565b6000602080830181845280855180835260408601915060408160051b870101925083870160005b828110156103f057603f198886030184526103de85835161033b565b945092850192908501906001016103c2565b5092979650505050505050565b600181811c9082168061041157607f821691505b60208210810361043157634e487b7160e01b600052602260045260246000fd5b50919050565b601f82111561048157600081815260208120601f850160051c8101602086101561045e5750805b601f850160051c820191505b8181101561047d5782815560010161046a565b5050505b505050565b815167ffffffffffffffff8111156104a0576104a061025b565b6104b4816104ae84546103fd565b84610437565b602080601f8311600181146104e957600084156104d15750858301515b600019600386901b1c1916600185901b17855561047d565b600085815260208120601f198616915b82811015610518578886015182559484019460019091019084016104f9565b50858210156105365787850151600019600388901b60f8161c191681555b5050505050600190811b0190555056fea264697066735822122005749faa6991c3e5e767e1f4ab5f787172aba201483dd1d833b549827e439bf964736f6c63430008110033",
      "opcodes": "PUSH1 0x80 PUSH1 0x40 MSTORE CALLVALUE DUP1 ISZERO PUSH2 0x10 JUMPI PUSH1 0x0 DUP1 REVERT JUMPDEST POP PUSH2 0x57C DUP1 PUSH2 0x20 PUSH1 0x0 CODECOPY PUSH1 0x0 RETURN INVALID PUSH1 0x80 PUSH1 0x40 MSTORE CALLVALUE DUP1 ISZERO PUSH2 0x10 JUMPI PUSH1 0x0 DUP1 REVERT JUMPDEST POP PUSH1 0x4 CALLDATASIZE LT PUSH2 0x41 JUMPI PUSH1 0x0 CALLDATALOAD PUSH1 0xE0 SHR DUP1 PUSH4 0x24350F55 EQ PUSH2 0x46 JUMPI DUP1 PUSH4 0x49F2E575 EQ PUSH2 0x5B JUMPI DUP1 PUSH4 0x68F16655 EQ PUSH2 0x84 JUMPI JUMPDEST PUSH1 0x0 DUP1 REVERT JUMPDEST PUSH2 0x59 PUSH2 0x54 CALLDATASIZE PUSH1 0x4 PUSH2 0x271 JUMP JUMPDEST PUSH2 0x99 JUMP JUMPDEST STOP JUMPDEST PUSH2 0x6E PUSH2 0x69 CALLDATASIZE PUSH1 0x4 PUSH2 0x322 JUMP JUMPDEST PUSH2 0xD6 JUMP JUMPDEST PUSH1 0x40 MLOAD PUSH2 0x7B SWAP2 SWAP1 PUSH2 0x381 JUMP JUMPDEST PUSH1 0x40 MLOAD DUP1 SWAP2 SUB SWAP1 RETURN JUMPDEST PUSH2 0x8C PUSH2 0x182 JUMP JUMPDEST PUSH1 0x40 MLOAD PUSH2 0x7B SWAP2 SWAP1 PUSH2 0x39B JUMP JUMPDEST PUSH1 0x0 DUP1 SLOAD PUSH1 0x1 DUP2 ADD DUP3 SSTORE SWAP1 DUP1 MSTORE PUSH32 0x290DECD9548B62A8D60345A988386FC84BA6BC95484008F6362F93160EF3E563 ADD PUSH2 0xD2 DUP3 DUP3 PUSH2 0x486 JUMP JUMPDEST POP POP JUMP JUMPDEST PUSH1 0x0 DUP2 DUP2 SLOAD DUP2 LT PUSH2 0xE6 JUMPI PUSH1 0x0 DUP1 REVERT JUMPDEST SWAP1 PUSH1 0x0 MSTORE PUSH1 0x20 PUSH1 0x0 KECCAK256 ADD PUSH1 0x0 SWAP2 POP SWAP1 POP DUP1 SLOAD PUSH2 0x101 SWAP1 PUSH2 0x3FD JUMP JUMPDEST DUP1 PUSH1 0x1F ADD PUSH1 0x20 DUP1 SWAP2 DIV MUL PUSH1 0x20 ADD PUSH1 0x40 MLOAD SWAP1 DUP2 ADD PUSH1 0x40 MSTORE DUP1 SWAP3 SWAP2 SWAP1 DUP2 DUP2 MSTORE PUSH1 0x20 ADD DUP3 DUP1 SLOAD PUSH2 0x12D SWAP1 PUSH2 0x3FD JUMP JUMPDEST DUP1 ISZERO PUSH2 0x17A JUMPI DUP1 PUSH1 0x1F LT PUSH2 0x14F JUMPI PUSH2 0x100 DUP1 DUP4 SLOAD DIV MUL DUP4 MSTORE SWAP2 PUSH1 0x20 ADD SWAP2 PUSH2 0x17A JUMP JUMPDEST DUP3 ADD SWAP2 SWAP1 PUSH1 0x0 MSTORE PUSH1 0x20 PUSH1 0x0 KECCAK256 SWAP1 JUMPDEST DUP2 SLOAD DUP2 MSTORE SWAP1 PUSH1 0x1 ADD SWAP1 PUSH1 0x20 ADD DUP1 DUP4 GT PUSH2 0x15D JUMPI DUP3 SWAP1 SUB PUSH1 0x1F AND DUP3 ADD SWAP2 JUMPDEST POP POP POP POP POP DUP2 JUMP JUMPDEST PUSH1 0x60 PUSH1 0x0 DUP1 SLOAD DUP1 PUSH1 0x20 MUL PUSH1 0x20 ADD PUSH1 0x40 MLOAD SWAP1 DUP2 ADD PUSH1 0x40 MSTORE DUP1 SWAP3 SWAP2 SWAP1 DUP2 DUP2 MSTORE PUSH1 0x20 ADD PUSH1 0x0 SWAP1 JUMPDEST DUP3 DUP3 LT ISZERO PUSH2 0x252 JUMPI DUP4 DUP3 SWAP1 PUSH1 0x0 MSTORE PUSH1 0x20 PUSH1 0x0 KECCAK256 ADD DUP1 SLOAD PUSH2 0x1C5 SWAP1 PUSH2 0x3FD JUMP JUMPDEST DUP1 PUSH1 0x1F ADD PUSH1 0x20 DUP1 SWAP2 DIV MUL PUSH1 0x20 ADD PUSH1 0x40 MLOAD SWAP1 DUP2 ADD PUSH1 0x40 MSTORE DUP1 SWAP3 SWAP2 SWAP1 DUP2 DUP2 MSTORE PUSH1 0x20 ADD DUP3 DUP1 SLOAD PUSH2 0x1F1 SWAP1 PUSH2 0x3FD JUMP JUMPDEST DUP1 ISZERO PUSH2 0x23E JUMPI DUP1 PUSH1 0x1F LT PUSH2 0x213 JUMPI PUSH2 0x100 DUP1 DUP4 SLOAD DIV MUL DUP4 MSTORE SWAP2 PUSH1 0x20 ADD SWAP2 PUSH2 0x23E JUMP JUMPDEST DUP3 ADD SWAP2 SWAP1 PUSH1 0x0 MSTORE PUSH1 0x20 PUSH1 0x0 KECCAK256 SWAP1 JUMPDEST DUP2 SLOAD DUP2 MSTORE SWAP1 PUSH1 0x1 ADD SWAP1 PUSH1 0x20 ADD DUP1 DUP4 GT PUSH2 0x221 JUMPI DUP3 SWAP1 SUB PUSH1 0x1F AND DUP3 ADD SWAP2 JUMPDEST POP POP POP POP POP DUP2 MSTORE PUSH1 0x20 ADD SWAP1 PUSH1 0x1 ADD SWAP1 PUSH2 0x1A6 JUMP JUMPDEST POP POP POP POP SWAP1 POP SWAP1 JUMP JUMPDEST PUSH4 0x4E487B71 PUSH1 0xE0 SHL PUSH1 0x0 MSTORE PUSH1 0x41 PUSH1 0x4 MSTORE PUSH1 0x24 PUSH1 0x0 REVERT JUMPDEST PUSH1 0x0 PUSH1 0x20 DUP3 DUP5 SUB SLT ISZERO PUSH2 0x283 JUMPI PUSH1 0x0 DUP1 REVERT JUMPDEST DUP2 CALLDATALOAD PUSH8 0xFFFFFFFFFFFFFFFF DUP1 DUP3 GT ISZERO PUSH2 0x29B JUMPI PUSH1 0x0 DUP1 REVERT JUMPDEST DUP2 DUP5 ADD SWAP2 POP DUP5 PUSH1 0x1F DUP4 ADD SLT PUSH2 0x2AF JUMPI PUSH1 0x0 DUP1 REVERT JUMPDEST DUP2 CALLDATALOAD DUP2 DUP2 GT ISZERO PUSH2 0x2C1 JUMPI PUSH2 0x2C1 PUSH2 0x25B JUMP JUMPDEST PUSH1 0x40 MLOAD PUSH1 0x1F DUP3 ADD PUSH1 0x1F NOT SWAP1 DUP2 AND PUSH1 0x3F ADD AND DUP2 ADD SWAP1 DUP4 DUP3 GT DUP2 DUP4 LT OR ISZERO PUSH2 0x2E9 JUMPI PUSH2 0x2E9 PUSH2 0x25B JUMP JUMPDEST DUP2 PUSH1 0x40 MSTORE DUP3 DUP2 MSTORE DUP8 PUSH1 0x20 DUP5 DUP8 ADD ADD GT ISZERO PUSH2 0x302 JUMPI PUSH1 0x0 DUP1 REVERT JUMPDEST DUP3 PUSH1 0x20 DUP7 ADD PUSH1 0x20 DUP4 ADD CALLDATACOPY PUSH1 0x0 SWAP3 DUP2 ADD PUSH1 0x20 ADD SWAP3 SWAP1 SWAP3 MSTORE POP SWAP6 SWAP5 POP POP POP POP POP JUMP JUMPDEST PUSH1 0x0 PUSH1 0x20 DUP3 DUP5 SUB SLT ISZERO PUSH2 0x334 JUMPI PUSH1 0x0 DUP1 REVERT JUMPDEST POP CALLDATALOAD SWAP2 SWAP1 POP JUMP JUMPDEST PUSH1 0x0 DUP2 MLOAD DUP1 DUP5 MSTORE PUSH1 0x0 JUMPDEST DUP2 DUP2 LT ISZERO PUSH2 0x361 JUMPI PUSH1 0x20 DUP2 DUP6 ADD DUP2 ADD MLOAD DUP7 DUP4 ADD DUP3 ADD MSTORE ADD PUSH2 0x345 JUMP JUMPDEST POP PUSH1 0x0 PUSH1 0x20 DUP3 DUP7 ADD ADD MSTORE PUSH1 0x20 PUSH1 0x1F NOT PUSH1 0x1F DUP4 ADD AND DUP6 ADD ADD SWAP2 POP POP SWAP3 SWAP2 POP POP JUMP JUMPDEST PUSH1 0x20 DUP2 MSTORE PUSH1 0x0 PUSH2 0x394 PUSH1 0x20 DUP4 ADD DUP5 PUSH2 0x33B JUMP JUMPDEST SWAP4 SWAP3 POP POP POP JUMP JUMPDEST PUSH1 0x0 PUSH1 0x20 DUP1 DUP4 ADD DUP2 DUP5 MSTORE DUP1 DUP6 MLOAD DUP1 DUP4 MSTORE PUSH1 0x40 DUP7 ADD SWAP2 POP PUSH1 0x40 DUP2 PUSH1 0x5 SHL DUP8 ADD ADD SWAP3 POP DUP4 DUP8 ADD PUSH1 0x0 JUMPDEST DUP3 DUP2 LT ISZERO PUSH2 0x3F0 JUMPI PUSH1 0x3F NOT DUP9 DUP7 SUB ADD DUP5 MSTORE PUSH2 0x3DE DUP6 DUP4 MLOAD PUSH2 0x33B JUMP JUMPDEST SWAP5 POP SWAP3 DUP6 ADD SWAP3 SWAP1 DUP6 ADD SWAP1 PUSH1 0x1 ADD PUSH2 0x3C2 JUMP JUMPDEST POP SWAP3 SWAP8 SWAP7 POP POP POP POP POP POP POP JUMP JUMPDEST PUSH1 0x1 DUP2 DUP2 SHR SWAP1 DUP3 AND DUP1 PUSH2 0x411 JUMPI PUSH1 0x7F DUP3 AND SWAP2 POP JUMPDEST PUSH1 0x20 DUP3 LT DUP2 SUB PUSH2 0x431 JUMPI PUSH4 0x4E487B71 PUSH1 0xE0 SHL PUSH1 0x0 MSTORE PUSH1 0x22 PUSH1 0x4 MSTORE PUSH1 0x24 PUSH1 0x0 REVERT JUMPDEST POP SWAP2 SWAP1 POP JUMP JUMPDEST PUSH1 0x1F DUP3 GT ISZERO PUSH2 0x481 JUMPI PUSH1 0x0 DUP2 DUP2 MSTORE PUSH1 0x20 DUP2 KECCAK256 PUSH1 0x1F DUP6 ADD PUSH1 0x5 SHR DUP2 ADD PUSH1 0x20 DUP7 LT ISZERO PUSH2 0x45E JUMPI POP DUP1 JUMPDEST PUSH1 0x1F DUP6 ADD PUSH1 0x5 SHR DUP3 ADD SWAP2 POP JUMPDEST DUP2 DUP2 LT ISZERO PUSH2 0x47D JUMPI DUP3 DUP2 SSTORE PUSH1 0x1 ADD PUSH2 0x46A JUMP JUMPDEST POP POP POP JUMPDEST POP POP POP JUMP JUMPDEST DUP2 MLOAD PUSH8 0xFFFFFFFFFFFFFFFF DUP2 GT ISZERO PUSH2 0x4A0 JUMPI PUSH2 0x4A0 PUSH2 0x25B JUMP JUMPDEST PUSH2 0x4B4 DUP2 PUSH2 0x4AE DUP5 SLOAD PUSH2 0x3FD JUMP JUMPDEST DUP5 PUSH2 0x437 JUMP JUMPDEST PUSH1 0x20 DUP1 PUSH1 0x1F DUP4 GT PUSH1 0x1 DUP2 EQ PUSH2 0x4E9 JUMPI PUSH1 0x0 DUP5 ISZERO PUSH2 0x4D1 JUMPI POP DUP6 DUP4 ADD MLOAD JUMPDEST PUSH1 0x0 NOT PUSH1 0x3 DUP7 SWAP1 SHL SHR NOT AND PUSH1 0x1 DUP6 SWAP1 SHL OR DUP6 SSTORE PUSH2 0x47D JUMP JUMPDEST PUSH1 0x0 DUP6 DUP2 MSTORE PUSH1 0x20 DUP2 KECCAK256 PUSH1 0x1F NOT DUP7 AND SWAP2 JUMPDEST DUP3 DUP2 LT ISZERO PUSH2 0x518 JUMPI DUP9 DUP7 ADD MLOAD DUP3 SSTORE SWAP5 DUP5 ADD SWAP5 PUSH1 0x1 SWAP1 SWAP2 ADD SWAP1 DUP5 ADD PUSH2 0x4F9 JUMP JUMPDEST POP DUP6 DUP3 LT ISZERO PUSH2 0x536 JUMPI DUP8 DUP6 ADD MLOAD PUSH1 0x0 NOT PUSH1 0x3 DUP9 SWAP1 SHL PUSH1 0xF8 AND SHR NOT AND DUP2 SSTORE JUMPDEST POP POP POP POP POP PUSH1 0x1 SWAP1 DUP2 SHL ADD SWAP1 SSTORE POP JUMP INVALID LOG2 PUSH5 0x6970667358 0x22 SLT KECCAK256 SDIV PUSH21 0x9FAA6991C3E5E767E1F4AB5F787172ABA201483DD1 0xD8 CALLER 0xB5 0x49 DUP3 PUSH31 0x439BF964736F6C634300081100330000000000000000000000000000000000 "
    },
    "gasEstimates": {
      "creation": {
        "codeDepositCost": "280800",
        "executionCost": "318",
        "totalCost": "281118"
      },
      "external": {
        "addToDataArray(string)": "infinite",
        "dataArray(uint256)": "infinite",
        "viewDataArray()": "infinite"
      }
    },
    "methodIdentifiers": {
      "addToDataArray(string)": "24350f55",
      "dataArray(uint256)": "49f2e575",
      "viewDataArray()": "68f16655"
    }
  },
  "storageLayout": {
    "storage": [
      {
        "astId": 4,
        "contract": "contract.sol:SimpleStorage",
        "label": "dataArray",
        "offset": 0,
        "slot": "0",
        "type": "t_array(t_string_storage)dyn_storage"
      }
    ],
    "types": {
      "t_array(t_string_storage)dyn_storage": {
        "base": "t_string_storage",
        "encoding": "dynamic_array",
        "label": "string[]",
        "numberOfBytes": "32"
      },
      "t_string_storage": {
        "encoding": "bytes",
        "label": "string",
        "numberOfBytes": "32"
      }
    }
  },
  "userdoc": {
    "kind": "user",
    "methods": {},
    "version": 1
  }
}